S01A0000414D49545F4631395F4143545F53486F6D652E737265635E
S11300000C942A000C9447000C9447000C9447006D
S11300100C9447000C9447000C9447000C94470040
S11300200C9447000C9447000C9447000C94470030
S11300300C9447000C9447000C9447000C94470020
S11300400C9447000C9447000C9447000C94470010
S11300500C94470011241FBECFE5D8E0DEBFCDBF0E
S113006013E0A0E6B0E0EAEDFAE002C005900D92DC
S1130070AA37B107D9F723E0AAE7B3E001C01D927C
S1130080AD39B207E1F70E9419040C946B050C9486
S1130090000080EB0E94A2048F3FD9F3803A11F450
S11300A081E0089582E008950E94A7040895CF9303
S11300B0DF93EC0183E00E94A20488838F3FD1F395
S11300C084E0DF91CF910895CF93C82F8C2F0E94A5
S11300D0A2048F3FD9F3873011F485E001C08AE090
S11300E0CF910895CF93C82F8C2F0E94A2048F3FE5
S11300F0D9F38D3011F485E001C08EE0CF910895DD
S11301000E9454000E944900823029F46CE00E944D
S1130110C6040E9449008230F1F360E182E00E944B
S1130120C60408950F931F93CF938C010E94490036
S1130130C0E007C065E182E00E94C6040E94490055
S1130140CF5F813011F0C530A8F3C53041F482305F
S113015031F466E189E00E94C60483E10CC0813079
S113016049F4C8010E9457006BE182E00E94C60472
S113017084E001C083E1CF911F910F910895CF9343
S1130180C82F823189F489E00E9464008A3031F4F6
S11301906AE082E00E94C60483E123C06CE182E04D
S11301A00E94C60484E11DC088E00E9464008A3075
S11301B031F46AE082E00E94C60483E112C0853013
S11301C059F48C2F0E9472008E3031F46AE082E080
S11301D00E94C60483E105C06CE182E00E94C6046B
S11301E084E1CF910895CF930E944900C0E009C0F3
S11301F0823021F465E10E94C604C0E00E944900F7
S1130200CF5F813011F4C83098F32FEF80E792E08C
S1130210215080409040E1F700C00000CF91089544
S11302201F93CF93DF938CE793E00E94AD0110E01E
S11302301CC0812F90E0EC01CC0FDD1F880F991FAB
S1130240880F991F880F991FC80FD91FC458DC4FF6
S1130250E981FA810995EC81FD8109951B821F5F73
S11302604EE1612F8DE10E94EC04133010F3DF9115
S1130270CF911F91089590E003978330910598F5ED
S1130280262F30E0215031092330310530F5FC01AF
S1130290EE0FFF1F880F991F880F991F880F991F52
S11302A0E80FF91FE458FC4F838190E028173907C1
S11302B071F4633031F462E180E20E94C60481E0AB
S11302C008956FE18AE10E94C60483E0089562E123
S11302D080E20E94C60481E0089561E28AE10E94FE
S11302E0C60483E0089561E289E10E94C60482E0C5
S11302F008951F93CF93DF93162FC82FD0E0239731
S1130300E62FF0E0CF010197FE01EE0FFF1FEE0F85
S1130310FF1FEC0FFD1FE80FF91F3296EE0FFF1FB2
S1130320E458FC4F0190F081E02D09951150CE0165
S1130330880F991FCC0FDD1FCC0FDD1FCC0FDD1FE5
S1130340C80FD91FC458DC4F1B8363E282E20E94AA
S1130350C604DF91CF911F910895CF9370E0C0E060
S113036040C0472F50E0FA01EE0FFF1FDA01AA0F39
S1130370BB1FAA0FBB1FAA0FBB1FEA0FFB1FE80F6F
S1130380F91F2C2F270F2D5F2295207F2083A05A41
S1130390BF4F2D913C913283218360E01EC0262FF4
S11303A030E0D9011196FA01EE0FFF1FEE0FFF1F87
S11303B0AE0FBF1FAA0FBB1FA05ABF4F0D90BC9119
S11303C0A02DE40FF51FE20FF31F3296EE0FFF1F6F
S11303D0E80FF91FB183A0836F5F633000F3CF5F31
S11303E07F5F733008F4BDCFCF910895FC01942F43
S11303F0818141E050E09A01062E02C0220F331F92
S11304000A94E2F7322F3095832381838181492F27
S113041050E002C0440F551F6A95E2F74223482B6F
S113042041830895FC01942F828141E050E09A01B8
S1130430062E02C0220F331F0A94E2F7322F3095A2
S1130440832382838281492F50E002C0440F551FC9
S11304506A95E2F74223482B42830895FC014281C6
S113046021E030E002C0220F331F6A95E2F724270F
S113047022830895CF93C82F40E061E086E390E0A3
S11304800E94120240E062E086E390E00E941202C1
S113049040E063E086E390E00E9412028BB39C2F5D
S11304A0907F8F70892B8BBB41E063E086E390E003
S11304B00E9412028FE99FE00197F1F700C000004B
S11304C040E063E086E390E00E94120220E1C29FD4
S11304D0C00111249BB39F70892B8BBB41E063E067
S11304E086E390E00E9412028FE99FE00197F1F702
S11304F000C0000040E063E086E390E00E94120246
S11305008FE19EE40197F1F700C00000CF910895B8
S113051041E061E086E390E00E94F60141E062E0A0
S113052086E390E00E94F60141E063E086E390E018
S11305300E94F60141E064E089E390E00E94F60144
S113054041E065E089E390E00E94F60141E066E065
S113055089E390E00E94F60141E067E089E390E0DE
S11305600E94F6012FEF81EE94E0215080409040EC
S1130570E1F700C0000083E30E943A0282E30E9494
S11305803A0288E20E943A028CE00E943A0281E038
S11305900E943A0286E00E943A0282E00E943A02F5
S11305A00895CF93C82F41E061E086E390E00E9474
S11305B0120240E062E086E390E00E94120240E012
S11305C063E086E390E00E9412028BB39C2F907F3D
S11305D08F70892B8BBB41E063E086E390E00E943F
S11305E012028FE99FE00197F1F700C0000040E09C
S11305F063E086E390E00E94120220E1C29FC00102
S113060011249BB39F70892B8BBB41E063E086E38D
S113061090E00E9412028FE99FE00197F1F700C079
S1130620000040E063E086E390E00E9412028FE164
S11306309EE40197F1F700C00000CF910895CF9296
S1130640DF92EF92FF921F93CF93DF936B017C01B4
S113065099235CF48DE20E94D102F094E094D0944A
S1130660C094C11CD11CE11CF11CC114D104E104CF
S1130670F104F9F480E30E94D10253C0BE01660F75
S1130680771FCC0FDD1FCC0FDD1FCC0FDD1FC60F76
S1130690D71FC701B6012AE030E040E050E00E94D5
S11306A01B05C60FD71FC22ED32EE42EF52E1F5FB7
S11306B003C010E0C0E0D0E01C141D041E041F049D
S11306C014F41A30DCF211502AC09E01ADECBCECDB
S11306D00E943A0596958795969587959695879560
S11306E09C01220F331F880F991F880F991F880FB1
S11306F0991F820F931F9E01281B390BC901805D2E
S11307000E94D1029E01ADECBCEC0E943A05EC01C2
S1130710D695C795D695C795D695C79511501123EB
S1130720A4F6DF91CF911F91FF90EF90DF90CF90CF
S113073008950F931F93CF938C01C0E003C00E94D0
S1130740D102CF5FF801EC0FF11D80818111F7CF49
S1130750CF911F910F910895CF93DF9300D0CDB720
S1130760DEB790E8998390EC9A83E1E0F0E0EC0F37
S1130770FD1FE80FF11D8081860F0E943A020F9041
S11307800F90DF91CF91089581E00E943A0208957D
S113079041E062E083E390E00E94F601089541E0C5
S11307A067E083E390E00E94F601089541E063E08E
S11307B080E390E00E94F601089541E062E083E363
S11307C090E00E941202089541E067E083E390E024
S11307D00E941202089541E063E080E390E00E94E9
S11307E01202089540E062E083E390E00E94120266
S11307F0089540E067E083E390E00E9412020895C8
S113080040E063E080E390E00E941202089562E019
S113081083E390E00E942E02089567E083E390E072
S11308200E942E02089563E080E390E00E942E026D
S113083008950E9470040E948E04FDCF61E185E258
S11308400E94C6048AE993E00E949200833141F435
S113085066E18BE20E94C60483E1809378000895E8
S113086080919A03982F92959F7090937B038F7039
S113087080937A03089560917A0380917B030E94A8
S11308803B01813091F460917A0380917B030E9453
S1130890790168E28AE20E94C60482E10E94BF00F4
S11308A08331A1F48093780011C0823041F48FE049
S11308B00E94BF00833151F48093780007C080E127
S11308C00E94BF00833111F4809378002FEF89E6F2
S11308D098E1215080409040E1F700C00000089565
S11308E00E94C3046BE085E20E94C6040E941001CA
S11308F00E9480006EE185E20E94C604089580E0B3
S113090006C0E82FF0E0E656FC4F10828F5F83307C
S1130910C0F310927B0310927A0308950E947F041F
S113092080917800833129F40E94F30084E180935C
S1130930780080917800843121F40E941E040E9482
S11309403B0408958FB9779BFECF8FB1089541E0A2
S113095066E086E390E00E94F60140E065E086E30D
S113096090E00E94F60140E067E086E390E00E9498
S1130970F60140E064E086E390E00E94F6018DB168
S113098084648DB908950E9488020895CF93DF93FB
S1130990D82FC62F0E94C40320E1D29FC001112486
S11309A087589F4F0E94990360E081E00E94AC0346
S11309B020E1C29FC001112487589F4F0E949903D0
S11309C08FEF94E32CE0815090402040E1F700C089
S11309D00000DF91CF9108951F93CF93DF93182FD9
S11309E0D62FC42F0E94C40320E1129FC0011124FA
S11309F087589F4F0E9499036D2F70E080E090E02C
S1130A000E941F0360E081E00E94AC0320E1C29FCA
S1130A10C001112487589F4F0E9499038FEF94E3DC
S1130A202CE0815090402040E1F700C00000DF91AD
S1130A30CF911F910895052E97FB1EF400940E94F8
S1130A40320557FD07D00E94490507FC03D04EF438
S1130A500C94320550954095309521953F4F4F4F5A
S1130A605F4F089590958095709561957F4F8F4F56
S1130A709F4F0895A29FB001B39FC001A39F700D23
S1130A80811D1124911DB29F700D811D1124911D92
S1130A900895A1E21A2EAA1BBB1BFD010DC0AA1FBB
S1130AA0BB1FEE1FFF1FA217B307E407F50720F0D3
S1130AB0A21BB30BE40BF50B661F771F881F991F4E
S1130AC01A9469F760957095809590959B01AC0197
S10D0AD0BD01CF010895F894FFCF93
S1130ADAC803F203DD030704CF03F903E4030D0497
S1130AEAD6030004EB03130414436F6E74726F6C21
S1130AFA2045435500000000004163747561746F1A
S1130B0A722045435500000000436F6E74726F6C87
S1130B1A204275730000000000425420506565723B
S1130B2A0000000000000000004254205065657275
S1130B3A205061697265640000496E76616C69646B
S1130B4A20505549440000000056616C69642050E5
S1130B5A55494400000000000052657175657374BC
S1130B6A20446F6E652100000053656E6420746F23
S1130B7A204254205065657200434D4420427573E7
S1130B8A205065657273000000496E76616C696471
S1130B9A2052657175657374215374617274696E38
S1130BAA672E2E2E3E3E3E2E2E496E76616C696469
S1130BBA205065657200000000536C61766520520E
S1130BCA6561647900000000004E6F7420436F6E03
S1130BDA6E6563746564000000506169726564003F
S1130BEA0000000000000000004D6173746572206B
S1130BFA52656164790000000070656E64696E670D
S1130C0A20696E70757400000050726F63656564C4
S1130C1A696E672E2E2E000000496E76616C696437
S1130C2A204465766963652100496E76616C69645E
S1130C3A204F7074696F6E21005065657220556E7D
S1130C4A617661696C61626C654E6F7420696E20AD
S1130C5A53796E630000000000496E76616C696422
S1130C6A20526573706F6E7365526571756573741E
S1130C7A696E6720526561736F446576696365209E
S1130C8A53656C6563746564004F702053656C65C5
S1130C9A6374656400000000004465762F4F702079
S1130CAA53656C656374656400526573706F6E7323
S1130CBA652053656E740000004465766963652097
S1130CCA3A20000000000000005245414459210026
S1130CDA000000000000000000416C726561647944
S1130CEA2052756E6E696E670056616C6964205392
S1130CFA656C656374696F6E00494E56414C49448C
S1130D0A0000000000000000004465766963652065
S1130D1A4F70000000000000004150504C49454407
S1130D2A210000000000000000436F6E74726F6CB3
S1130D3A2053797374656D00004163747561746F2F
S1130D4A722053797374656D0053656C65637465B9
S1130D5A6400000000000000004F702053746174A6
S1130D6A75733A2E2E00000000446F6E6521000050
S1130D7A00000000000000000053656C656374699C
S1130D8A6F6E204552524F522152657175657374C4
S1130D9A3A2E2E2E00000000004354524C204143A8
S1130DAA542053797374656D0053656E642042311F
S1130DBA204661696C6564000053656E64204232A2
S1130DCA204661696C6564000053656E6420436D56
S1130DDA64204661696C656400000000000000003C
S10D0DEA00000000000000000000FB
S9030000FC
